{
  "_format": "hh-sol-artifact-1",
  "contractName": "shark",
  "sourceName": "contracts/Shark.sol",
  "abi": [
    {
      "inputs": [],
      "stateMutability": "nonpayable",
      "type": "constructor"
    },
    {
      "stateMutability": "payable",
      "type": "fallback"
    },
    {
      "inputs": [],
      "name": "getInvestments",
      "outputs": [
        {
          "components": [
            {
              "internalType": "string",
              "name": "name",
              "type": "string"
            },
            {
              "internalType": "string",
              "name": "messgage",
              "type": "string"
            },
            {
              "internalType": "uint256",
              "name": "amount",
              "type": "uint256"
            },
            {
              "internalType": "uint256",
              "name": "timestamp",
              "type": "uint256"
            },
            {
              "internalType": "address",
              "name": "from",
              "type": "address"
            }
          ],
          "internalType": "struct shark.investment[]",
          "name": "",
          "type": "tuple[]"
        }
      ],
      "stateMutability": "view",
      "type": "function"
    },
    {
      "inputs": [],
      "name": "getWithdrawals",
      "outputs": [
        {
          "components": [
            {
              "internalType": "string",
              "name": "name",
              "type": "string"
            },
            {
              "internalType": "string",
              "name": "messgage",
              "type": "string"
            },
            {
              "internalType": "uint256",
              "name": "amount",
              "type": "uint256"
            },
            {
              "internalType": "uint256",
              "name": "timestamp",
              "type": "uint256"
            },
            {
              "internalType": "address",
              "name": "from",
              "type": "address"
            }
          ],
          "internalType": "struct shark.investment[]",
          "name": "",
          "type": "tuple[]"
        }
      ],
      "stateMutability": "view",
      "type": "function"
    },
    {
      "inputs": [
        {
          "internalType": "string",
          "name": "name",
          "type": "string"
        },
        {
          "internalType": "string",
          "name": "message",
          "type": "string"
        }
      ],
      "name": "invest",
      "outputs": [],
      "stateMutability": "payable",
      "type": "function"
    },
    {
      "inputs": [],
      "name": "sentToContract",
      "outputs": [],
      "stateMutability": "payable",
      "type": "function"
    },
    {
      "inputs": [
        {
          "internalType": "string",
          "name": "name",
          "type": "string"
        },
        {
          "internalType": "string",
          "name": "message",
          "type": "string"
        },
        {
          "internalType": "uint256",
          "name": "_amount",
          "type": "uint256"
        },
        {
          "internalType": "address payable",
          "name": "_to",
          "type": "address"
        }
      ],
      "name": "withdraw",
      "outputs": [],
      "stateMutability": "payable",
      "type": "function"
    },
    {
      "stateMutability": "payable",
      "type": "receive"
    }
  ],
  "bytecode": "0x608060405234801561001057600080fd5b5033600260006101000a81548173ffffffffffffffffffffffffffffffffffffffff021916908373ffffffffffffffffffffffffffffffffffffffff160217905550611118806100616000396000f3fe60806040526004361061004e5760003560e01c806350d6c1e8146100575780636592e566146100825780637922f80f1461008c578063c18e7a8d146100a8578063d624722d146100c457610055565b3661005557005b005b34801561006357600080fd5b5061006c6100ef565b6040516100799190610ac9565b60405180910390f35b61008a6102dc565b005b6100a660048036038101906100a19190610b5a565b6102de565b005b6100c260048036038101906100bd9190610c45565b6104a8565b005b3480156100d057600080fd5b506100d96106b3565b6040516100e69190610ac9565b60405180910390f35b60606001805480602002602001604051908101604052809291908181526020016000905b828210156102d357838290600052602060002090600502016040518060a001604052908160008201805461014690610d1b565b80601f016020809104026020016040519081016040528092919081815260200182805461017290610d1b565b80156101bf5780601f10610194576101008083540402835291602001916101bf565b820191906000526020600020905b8154815290600101906020018083116101a257829003601f168201915b505050505081526020016001820180546101d890610d1b565b80601f016020809104026020016040519081016040528092919081815260200182805461020490610d1b565b80156102515780601f1061022657610100808354040283529160200191610251565b820191906000526020600020905b81548152906001019060200180831161023457829003601f168201915b5050505050815260200160028201548152602001600382015481526020016004820160009054906101000a900473ffffffffffffffffffffffffffffffffffffffff1673ffffffffffffffffffffffffffffffffffffffff1673ffffffffffffffffffffffffffffffffffffffff168152505081526020019060010190610113565b50505050905090565b565b60003411610321576040517f08c379a000000000000000000000000000000000000000000000000000000000815260040161031890610da9565b60405180910390fd5b6103296102dc565b60006040518060a0016040528086868080601f016020809104026020016040519081016040528093929190818152602001838380828437600081840152601f19601f82011690508083019250505050505050815260200184848080601f016020809104026020016040519081016040528093929190818152602001838380828437600081840152601f19601f8201169050808301925050505050505081526020013481526020014281526020013373ffffffffffffffffffffffffffffffffffffffff168152509080600181540180825580915050600190039060005260206000209060050201600090919091909150600082015181600001908161042e9190610fa4565b5060208201518160010190816104449190610fa4565b50604082015181600201556060820151816003015560808201518160040160006101000a81548173ffffffffffffffffffffffffffffffffffffffff021916908373ffffffffffffffffffffffffffffffffffffffff160217905550505050505050565b600047116104eb576040517f08c379a00000000000000000000000000000000000000000000000000000000081526004016104e2906110c2565b60405180910390fd5b8073ffffffffffffffffffffffffffffffffffffffff166108fc839081150290604051600060405180830381858888f19350505050158015610531573d6000803e3d6000fd5b5060016040518060a0016040528088888080601f016020809104026020016040519081016040528093929190818152602001838380828437600081840152601f19601f82011690508083019250505050505050815260200186868080601f016020809104026020016040519081016040528093929190818152602001838380828437600081840152601f19601f8201169050808301925050505050505081526020018481526020014281526020013373ffffffffffffffffffffffffffffffffffffffff16815250908060018154018082558091505060019003906000526020600020906005020160009091909190915060008201518160000190816106379190610fa4565b50602082015181600101908161064d9190610fa4565b50604082015181600201556060820151816003015560808201518160040160006101000a81548173ffffffffffffffffffffffffffffffffffffffff021916908373ffffffffffffffffffffffffffffffffffffffff1602179055505050505050505050565b60606000805480602002602001604051908101604052809291908181526020016000905b8282101561089757838290600052602060002090600502016040518060a001604052908160008201805461070a90610d1b565b80601f016020809104026020016040519081016040528092919081815260200182805461073690610d1b565b80156107835780601f1061075857610100808354040283529160200191610783565b820191906000526020600020905b81548152906001019060200180831161076657829003601f168201915b5050505050815260200160018201805461079c90610d1b565b80601f01602080910402602001604051908101604052809291908181526020018280546107c890610d1b565b80156108155780601f106107ea57610100808354040283529160200191610815565b820191906000526020600020905b8154815290600101906020018083116107f857829003601f168201915b5050505050815260200160028201548152602001600382015481526020016004820160009054906101000a900473ffffffffffffffffffffffffffffffffffffffff1673ffffffffffffffffffffffffffffffffffffffff1673ffffffffffffffffffffffffffffffffffffffff1681525050815260200190600101906106d7565b50505050905090565b600081519050919050565b600082825260208201905092915050565b6000819050602082019050919050565b600081519050919050565b600082825260208201905092915050565b60005b838110156109065780820151818401526020810190506108eb565b60008484015250505050565b6000601f19601f8301169050919050565b600061092e826108cc565b61093881856108d7565b93506109488185602086016108e8565b61095181610912565b840191505092915050565b6000819050919050565b61096f8161095c565b82525050565b600073ffffffffffffffffffffffffffffffffffffffff82169050919050565b60006109a082610975565b9050919050565b6109b081610995565b82525050565b600060a08301600083015184820360008601526109d38282610923565b915050602083015184820360208601526109ed8282610923565b9150506040830151610a026040860182610966565b506060830151610a156060860182610966565b506080830151610a2860808601826109a7565b508091505092915050565b6000610a3f83836109b6565b905092915050565b6000602082019050919050565b6000610a5f826108a0565b610a6981856108ab565b935083602082028501610a7b856108bc565b8060005b85811015610ab75784840389528151610a988582610a33565b9450610aa383610a47565b925060208a01995050600181019050610a7f565b50829750879550505050505092915050565b60006020820190508181036000830152610ae38184610a54565b905092915050565b600080fd5b600080fd5b600080fd5b600080fd5b600080fd5b60008083601f840112610b1a57610b19610af5565b5b8235905067ffffffffffffffff811115610b3757610b36610afa565b5b602083019150836001820283011115610b5357610b52610aff565b5b9250929050565b60008060008060408587031215610b7457610b73610aeb565b5b600085013567ffffffffffffffff811115610b9257610b91610af0565b5b610b9e87828801610b04565b9450945050602085013567ffffffffffffffff811115610bc157610bc0610af0565b5b610bcd87828801610b04565b925092505092959194509250565b610be48161095c565b8114610bef57600080fd5b50565b600081359050610c0181610bdb565b92915050565b6000610c1282610975565b9050919050565b610c2281610c07565b8114610c2d57600080fd5b50565b600081359050610c3f81610c19565b92915050565b60008060008060008060808789031215610c6257610c61610aeb565b5b600087013567ffffffffffffffff811115610c8057610c7f610af0565b5b610c8c89828a01610b04565b9650965050602087013567ffffffffffffffff811115610caf57610cae610af0565b5b610cbb89828a01610b04565b94509450506040610cce89828a01610bf2565b9250506060610cdf89828a01610c30565b9150509295509295509295565b7f4e487b7100000000000000000000000000000000000000000000000000000000600052602260045260246000fd5b60006002820490506001821680610d3357607f821691505b602082108103610d4657610d45610cec565b5b50919050565b600082825260208201905092915050565b7f416d6f756e74206d7573742062652067726561746572207468616e2030455448600082015250565b6000610d93602083610d4c565b9150610d9e82610d5d565b602082019050919050565b60006020820190508181036000830152610dc281610d86565b9050919050565b7f4e487b7100000000000000000000000000000000000000000000000000000000600052604160045260246000fd5b60008190508160005260206000209050919050565b60006020601f8301049050919050565b600082821b905092915050565b600060088302610e5a7fffffffffffffffffffffffffffffffffffffffffffffffffffffffffffffffff82610e1d565b610e648683610e1d565b95508019841693508086168417925050509392505050565b6000819050919050565b6000610ea1610e9c610e978461095c565b610e7c565b61095c565b9050919050565b6000819050919050565b610ebb83610e86565b610ecf610ec782610ea8565b848454610e2a565b825550505050565b600090565b610ee4610ed7565b610eef818484610eb2565b505050565b5b81811015610f1357610f08600082610edc565b600181019050610ef5565b5050565b601f821115610f5857610f2981610df8565b610f3284610e0d565b81016020851015610f41578190505b610f55610f4d85610e0d565b830182610ef4565b50505b505050565b600082821c905092915050565b6000610f7b60001984600802610f5d565b1980831691505092915050565b6000610f948383610f6a565b9150826002028217905092915050565b610fad826108cc565b67ffffffffffffffff811115610fc657610fc5610dc9565b5b610fd08254610d1b565b610fdb828285610f17565b600060209050601f83116001811461100e5760008415610ffc578287015190505b6110068582610f88565b86555061106e565b601f19841661101c86610df8565b60005b828110156110445784890151825560018201915060208501945060208101905061101f565b86831015611061578489015161105d601f891682610f6a565b8355505b6001600288020188555050505b505050505050565b7f42616c616e6365206f6e6c79206c657373207468616e20304554480000000000600082015250565b60006110ac601b83610d4c565b91506110b782611076565b602082019050919050565b600060208201905081810360008301526110db8161109f565b905091905056fea26469706673582212209b97dd85503f84ecb32a9fd5d1af668cc3664a5f6ce60333b7b5d5e851069be064736f6c63430008110033",
  "linkReferences": {},
  "deployedLinkReferences": {}
}